:100000000C9447000C9464000C9464000C946400FD
:100010000C9464000C9466000C9464000C946400CE
:100020000C9442010C9464000C9464000C946400E1
:100030000C9464000C9464000C9464000C946400B0
:100040000C9464000C9464000C9464000C9477008D
:100050000C9464000C9464000C9464000C94640090
:100060000C9464000C9464000C9464000C94640080
:100070000C9464000C9464000C9464000C94640070
:100080000C9464000C9464000C94640043031124E9
:100090001FBECFEFD0E4DEBFCDBF21E0A0E0B1E0D6
:1000A00001C01D92AF31B207E1F710E0C7E4D0E024
:1000B00004C02197FE010E944703C634D107C9F747
:1000C0000E94F5020C9450030C9400001F920F92B2
:1000D0000FB60F9211241C9905C01EBC109200018E
:1000E00010921A010F900FBE0F901F9018951F923B
:1000F0000F920FB60F9211240BB60F922F933F93CE
:100100004F935F936F937F938F939F93AF93BF931F
:10011000EF93FF9380911A018EBD3EB520910001AF
:10012000832F90E0B0E0A0E02130C1F140F0223018
:1001300009F451C0233009F46CC010920001B82FAB
:10014000AA27992788278093010190930201A09301
:100150000301B0930401809100018F5F809300013F
:1001600081E090911701911101C080E090911901F7
:10017000892B80931A01FF91EF91BF91AF919F91CD
:100180008F917F916F915F914F913F912F910F9040
:100190000BBE0F900FBE0F901F901895DC01992792
:1001A00088274091010150910201609103017091F3
:1001B0000401842B952BA62BB72B809301019093E0
:1001C0000201A0930301B093040182E08093000137
:1001D00080911801CECFBA2FA92F982F8827409150
:1001E0000101509102016091030170910401842B7F
:1001F000952BA62BB72B8093010190930201A0931E
:100200000301B093040123E020930001B0931A018D
:10021000B2CF4091010150910201609103017091B0
:100220000401842B952BA62BB72B8093010190936F
:100230000201A0930301B093040130931A014B2FE4
:100240005527662777274130510561057105B9F0BB
:1002500030911701343098F42091150144E0249F27
:10026000F0011124E050FF4F85839683A783B08768
:100270002F5F2370209315013F5F30931701109279
:10028000000179CF1F920F920FB60F9211240F9099
:100290000FBE0F901F901895FC01108211821382DF
:1002A00012820895FC0173836283159A808128E08D
:1002B000833021F020E0843009F02CE0159892B1D1
:1002C0008381382F32953F70892F807F832B822B3B
:1002D00082B90895FC018281938101969383828380
:1002E000149A808128E0833021F020E0843009F0E6
:1002F0002CE0149892B18381382F32953F70892F6A
:10030000807F832B822B82B90895CF93DF93EB01FB
:100310000E945201DF70209721F0149A21971498BF
:10032000FACFDF91CF910895FC0161838BB18F7378
:100330008BB9613069F0623071F05A9AFFE728E3B7
:1003400081E0F15020408040E1F700C000000895B6
:100350005E9A5A98F3CF5F9AFCCF0F931F93CF9377
:100360008C01C62F60E00E9494012FE78AE196E09D
:10037000215080409040E1F700C00000F801C083A8
:10038000C43071F45B9AFFEF20E782E0F150204027
:100390008040E1F700C00000CF911F910F910895B8
:1003A0005B98F1CFCF93DF93EC0160E00E94940162
:1003B00070E060E0CE01DF91CF910C94520117B84C
:1003C0008FEF88B98BB18F7C8BB98DE08A95F1F76F
:1003D000000086B19BB190639BB995E09A95F1F7C7
:1003E00000000895FC018081813060F0833018F0B6
:1003F000853030F00895129A5D9A5C9812980895AD
:100400005D9A5C980895FC018081813040F08330D2
:1004100018F0853018F00895129A08955C9A08959E
:1004200017B82FEF28B9FC018081813020F083308C
:1004300020F0853070F080E008955D98FDE0FA9539
:10044000F1F7000086B15D9A95E09A95F1F700000A
:1004500008955D985C98EDE0EA95F1F7000086B1AB
:100460005C9A5D9AF5E0FA95F1F7F1CFEF92FF9281
:100470000F931F93CF93DF938C01F62E0E94DF0121
:10048000D82F8F15D1F0C1E0EE24EA94E7B8F8B880
:10049000C8010E94F2018FEC97E00197F1F700C0CC
:1004A0000000C8010E940302C8010E941002D82F58
:1004B000F816A9F0CF5FC03149F78D2FDF91CF91AA
:1004C0001F910F91FF90EF900895C8010E940302C1
:1004D00017B8C8B995E09A95F1F70000EECFE7B8E4
:1004E00088B9C8010E94F201CC0FCC0FC15068F34B
:1004F0008FEC97E00197F1F700C00000F7CF1F9352
:10050000CF93DF93EC018F89882371F12E8984E0EA
:10051000289FF0011124EC0FFD1F658176818781F2
:1005200090852F5F23702E8B162FE92F9A30C8F4F9
:10053000F0E0E356FD4F0C944703A702B102B80266
:10054000C602CB02D002C002DB02EA02EF028BE15C
:1005500091E00E94D2018BE191E00E94DF01888F3F
:10056000198E8F8981508F8BDF91CF911F910895C4
:10057000672F782F892F99278BE191E00E948501C1
:100580008BE191E00E94DF01888FEBCF8BE191E05E
:100590000E94AD01E6CF8BE191E00E949401E1CF92
:1005A000198E8BE191E00E943602888F8117C9F283
:1005B00082E0898FD6CF198E8BE191E00E943602BE
:1005C000888F811711F082E0898F8BE191E00E9482
:1005D0006A01C7CF8BE191E00E946A01D1CF662307
:1005E00011F02898BECF289ABCCF14BE80E885BFF2
:1005F0008FEF81B912B89FE094B991EF95B917B810
:1006000088B98EEF8AB987E38BB983B7817F83BFBF
:1006100083B7816083BF88E1809360008FE480931B
:10062000600078948BE191E00E94D20161E08BE15F
:1006300091E00E94AD01269AF89480E180936C00CD
:1006400082E08093680080EC8CBD1EBC109200019B
:1006500010921A018DB58EB51092170110921601E5
:1006600010921501109219017894C7E48895A89505
:10067000C0936000809117018823C1F380E091E06E
:100680000E947F02F3CF8BE191E00C944C01EE0FBE
:10069000FF1F0024001C0BBE0790F691E02D09946B
:0406A000F894FFCFFC
:00000001FF
