:100000000C9447000C9476000C9476000C947600C7
:100010000C9476000C9497010C9476000C94760066
:100020000C94D2010C9476000C9476000C9476001B
:100030000C9476000C9476000C9476000C94760068
:100040000C9476000C9476000C9476000C94A80125
:100050000C9476000C9476000C9476000C94760048
:100060000C9476000C9476000C9476000C94760038
:100070000C9476000C9476000C9476000C94760028
:100080000C9476000C9476000C94760018021124DF
:100090001FBECFEFD0E4DEBFCDBF11E0A0E0B1E0E6
:1000A000E8EBF6E000E00BBF02C007900D92A43031
:1000B000B107D9F711E0A4E0B1E001C01D92A3326D
:1000C000B107E1F710E000E0CEE8D0E040E006C084
:1000D00022974109FE014BBF0E945603CC38D1073D
:1000E0004007B1F70E94DC010C945A030C94000005
:1000F0001F93CF93DF93EC018F89882309F474C099
:100100008E89E82FF0E0EE0FFF1FEE0FFF1FEC0FC0
:10011000FD1F25813681478150858F5F83708E8BCF
:10012000122F852F9927AA27BB27843079F1853094
:1001300038F48230D9F0833018F5882361F051C04B
:10014000863009F449C0863038F1873089F188302B
:1001500009F047C03DC084E091E00E94A40284E021
:1001600091E00E94B202888F198E3BC0232F342F5A
:10017000452F552784E091E0B9010E9456022CC01A
:1001800084E091E0622F0E9480022BC084E091E025
:10019000622F0E94650225C0198E84E091E0622FD3
:1001A0000E940A03888F8117E1F082E0898F19C0CD
:1001B000198E84E091E0622F0E940A03888F8117D4
:1001C00011F082E0898F84E091E00E943B0209C037
:1001D00084E091E00E943B0284E091E00E94B20240
:1001E000888F8F8981508F8BDF91CF911F910895D8
:1001F000FC01269AF89480E180936C0082E0809361
:10020000680080EC8CBD1EBC1082128E8DB58EB540
:10021000178A168A158A118E78940895FC01828DAA
:100220008EBD6EB580818130F9F0813030F0823042
:1002300099F1833009F448C01082862F90E0A0E045
:10024000B0E0B82FAA279927882781839283A383B8
:10025000B48380818F5F808391E08789882309F44C
:1002600090E0818D892B16C0862F90E0A0E0B0E051
:10027000DC01992788274181528163817481482B51
:10028000592B6A2B7B2B418352836383748382E0D7
:100290008083808D828F0895262F30E040E050E0EB
:1002A000542F432F322F222781819281A381B48141
:1002B000282B392B4A2B5B2B218332834383548396
:1002C00083E08083528F0895262F30E040E050E095
:1002D00081819281A381B481282B392B4A2B5B2BFE
:1002E0002183328343835483628F852F9927AA27E2
:1002F000BB2781309105A105B105B9F097899430EC
:10030000A0F48589A82FB0E0AA0FBB1FAA0FBB1FBE
:10031000AE0FBF1F15962D933D934D935C93189789
:100320008F5F8370858B9F5F978B108208951F92DC
:100330000F920FB60F9211241C9905C01EBC10928B
:100340000801109222010F900FBE0F901F90189578
:100350001F920F920FB60F920BB60F9211242F938C
:100360003F934F935F936F937F938F939F93AF933D
:10037000BF93EF93FF9388E091E00E940E01FF91FD
:10038000EF91BF91AF919F918F917F916F915F910D
:100390004F913F912F910F900BBE0F900FBE0F907A
:1003A0001F9018951F920F920FB60F9211240F9065
:1003B0000FBE0F901F90189514BE80E885BF8FEF79
:1003C00081B912B89FE094B990EF95B917B888B980
:1003D0008EEF8AB987E38BB983B7817F83BF83B7F9
:1003E000816083BF8091600088618093600088EEA7
:1003F00080936000789484E091E00E94A40284E0FD
:1004000091E061E00E94800288E091E00E94F800A3
:100410008895A895809160008064809360008091A9
:100420001F018823A9F388E091E00E947800F0CFB3
:1004300084E091E00E941D020895FC011082118267
:10044000138212820895FC0173836283159AA0813E
:10045000A350A23028F4B0E0A050BF4F2C9101C0AF
:100460002CE0159882B1938192959F70807F892BA3
:10047000822B82B90895FC01828193810196938336
:100480008283149AA081A350A23028F4B0E0AE5F1A
:10049000BE4F2C9101C02CE0149882B193819295AB
:1004A0009F70807F892B822B82B90895CF93DF9331
:1004B000EB010E942302DF7003C0149A2197149865
:1004C0002097D9F7DF91CF910895DC0111966C93B5
:1004D00011978BB18F738BB9613021F0623021F0AD
:1004E0005A9A04C05E9A01C05F9A5A988FE798E3BF
:1004F000A1E081509040A040E1F700C000000895C5
:100500001F93CF93DF93EC01162F60E00E946502EA
:100510008FE79AE1A6E081509040A040E1F700C04B
:1005200000001883143011F45B9A01C05B988FEFC0
:1005300090E7A2E081509040A040E1F700C00000A9
:10054000DF91CF911F910895CF93DF93EC0160E08D
:100550000E946502CE0160E070E00E942302DF91FC
:10056000CF91089517B88FEF88B98BB18F7C8BB975
:100570008DE08A95F1F7000086B19BB190639BB93D
:1005800095E09A95F1F700000895FC018081813093
:1005900060F0833018F0853040F405C0129A5D9AFF
:1005A0005C98129808955D9A5C980895FC0180818A
:1005B000813040F0833018F0853020F402C0129A68
:1005C00008955C9A089517B82FEF28B9FC0180812F
:1005D0008130F0F0833018F08530D0F40BC05D9896
:1005E000FDE0FA95F1F7000086B15D9A95E09A95E5
:1005F000F1F70CC05D985C98EDE0EA95F1F700002A
:1006000086B15C9A5D9AF5E0FA95F1F700000895DD
:1006100080E00895EF92FF920F931F93CF93DF93A3
:10062000EC01F62E0E94B202182F8F15B9F101E0ED
:10063000EE24EA94E7B8F8B8CE010E94C5028FEC28
:1006400097E00197F1F700C00000CE010E94D602AA
:10065000CE010E94E302182F8F1521F00F5F0031A9
:1006600049F71CC08FEF87B9F8B8CE010E94C502C8
:10067000000F000F07C08FEC97E00197F1F700C063
:10068000000001500023B9F7CE010E94D60217B82E
:100690008FEF88B995E09A95F1F70000812FDF91EF
:1006A000CF911F910F91FF90EF9008950790F691D1
:0806B000E02D0994F894FFCF3E
:0406B800080008002E
:00000001FF
